{
  "contractName": "BestX",
  "abi": [
    {
      "anonymous": false,
      "inputs": [
        {
          "indexed": false,
          "internalType": "uint8",
          "name": "version",
          "type": "uint8"
        }
      ],
      "name": "Initialized",
      "type": "event"
    },
    {
      "anonymous": false,
      "inputs": [
        {
          "indexed": true,
          "internalType": "address",
          "name": "previousOwner",
          "type": "address"
        },
        {
          "indexed": true,
          "internalType": "address",
          "name": "newOwner",
          "type": "address"
        }
      ],
      "name": "OwnershipTransferred",
      "type": "event"
    },
    {
      "anonymous": false,
      "inputs": [
        {
          "indexed": false,
          "internalType": "address",
          "name": "account",
          "type": "address"
        }
      ],
      "name": "Paused",
      "type": "event"
    },
    {
      "anonymous": false,
      "inputs": [
        {
          "indexed": false,
          "internalType": "address",
          "name": "artist",
          "type": "address"
        }
      ],
      "name": "PayoutTop1",
      "type": "event"
    },
    {
      "anonymous": false,
      "inputs": [
        {
          "components": [
            {
              "internalType": "uint256",
              "name": "itemId",
              "type": "uint256"
            },
            {
              "internalType": "string",
              "name": "tokenUrl",
              "type": "string"
            },
            {
              "internalType": "uint256",
              "name": "votes",
              "type": "uint256"
            },
            {
              "internalType": "address payable",
              "name": "artist",
              "type": "address"
            },
            {
              "internalType": "enum Storage.Status",
              "name": "status",
              "type": "uint8"
            },
            {
              "internalType": "string",
              "name": "description",
              "type": "string"
            }
          ],
          "indexed": false,
          "internalType": "struct Storage.Post[]",
          "name": "artists",
          "type": "tuple[]"
        }
      ],
      "name": "PayoutTop5",
      "type": "event"
    },
    {
      "anonymous": false,
      "inputs": [
        {
          "components": [
            {
              "internalType": "uint256",
              "name": "itemId",
              "type": "uint256"
            },
            {
              "internalType": "string",
              "name": "tokenUrl",
              "type": "string"
            },
            {
              "internalType": "uint256",
              "name": "votes",
              "type": "uint256"
            },
            {
              "internalType": "address payable",
              "name": "artist",
              "type": "address"
            },
            {
              "internalType": "enum Storage.Status",
              "name": "status",
              "type": "uint8"
            },
            {
              "internalType": "string",
              "name": "description",
              "type": "string"
            }
          ],
          "indexed": false,
          "internalType": "struct Storage.Post[]",
          "name": "artists",
          "type": "tuple[]"
        },
        {
          "indexed": false,
          "internalType": "uint256",
          "name": "amount",
          "type": "uint256"
        }
      ],
      "name": "PayoutTopHalf",
      "type": "event"
    },
    {
      "anonymous": false,
      "inputs": [
        {
          "indexed": false,
          "internalType": "uint256",
          "name": "itemId",
          "type": "uint256"
        },
        {
          "indexed": false,
          "internalType": "string",
          "name": "tokenUrl",
          "type": "string"
        },
        {
          "indexed": false,
          "internalType": "uint256",
          "name": "votes",
          "type": "uint256"
        },
        {
          "indexed": false,
          "internalType": "address",
          "name": "artist",
          "type": "address"
        },
        {
          "indexed": false,
          "internalType": "enum Storage.Status",
          "name": "status",
          "type": "uint8"
        }
      ],
      "name": "PostCreated",
      "type": "event"
    },
    {
      "anonymous": false,
      "inputs": [
        {
          "indexed": false,
          "internalType": "address",
          "name": "account",
          "type": "address"
        }
      ],
      "name": "Unpaused",
      "type": "event"
    },
    {
      "anonymous": false,
      "inputs": [
        {
          "indexed": false,
          "internalType": "address",
          "name": "artist",
          "type": "address"
        },
        {
          "indexed": false,
          "internalType": "uint256",
          "name": "amount",
          "type": "uint256"
        }
      ],
      "name": "compSuccessful",
      "type": "event"
    },
    {
      "anonymous": false,
      "inputs": [
        {
          "indexed": false,
          "internalType": "address",
          "name": "artist",
          "type": "address"
        },
        {
          "indexed": false,
          "internalType": "uint256",
          "name": "amount",
          "type": "uint256"
        }
      ],
      "name": "depositSuccessful",
      "type": "event"
    },
    {
      "anonymous": false,
      "inputs": [
        {
          "indexed": false,
          "internalType": "address",
          "name": "sender",
          "type": "address"
        },
        {
          "indexed": false,
          "internalType": "address",
          "name": "receiver",
          "type": "address"
        },
        {
          "indexed": false,
          "internalType": "uint256",
          "name": "amount",
          "type": "uint256"
        }
      ],
      "name": "donationSuccessful",
      "type": "event"
    },
    {
      "anonymous": false,
      "inputs": [
        {
          "indexed": false,
          "internalType": "address",
          "name": "artist",
          "type": "address"
        },
        {
          "indexed": false,
          "internalType": "uint256",
          "name": "amount",
          "type": "uint256"
        }
      ],
      "name": "withdrawSuccessful",
      "type": "event"
    },
    {
      "inputs": [],
      "name": "_itemIds",
      "outputs": [
        {
          "internalType": "uint256",
          "name": "_value",
          "type": "uint256"
        }
      ],
      "stateMutability": "view",
      "type": "function"
    },
    {
      "inputs": [
        {
          "internalType": "address",
          "name": "",
          "type": "address"
        }
      ],
      "name": "balances",
      "outputs": [
        {
          "internalType": "uint256",
          "name": "",
          "type": "uint256"
        }
      ],
      "stateMutability": "view",
      "type": "function"
    },
    {
      "inputs": [],
      "name": "fifthPrize",
      "outputs": [
        {
          "internalType": "uint256",
          "name": "",
          "type": "uint256"
        }
      ],
      "stateMutability": "view",
      "type": "function"
    },
    {
      "inputs": [],
      "name": "firstPrize",
      "outputs": [
        {
          "internalType": "uint256",
          "name": "",
          "type": "uint256"
        }
      ],
      "stateMutability": "view",
      "type": "function"
    },
    {
      "inputs": [],
      "name": "fourthPrize",
      "outputs": [
        {
          "internalType": "uint256",
          "name": "",
          "type": "uint256"
        }
      ],
      "stateMutability": "view",
      "type": "function"
    },
    {
      "inputs": [
        {
          "internalType": "address",
          "name": "",
          "type": "address"
        },
        {
          "internalType": "uint256",
          "name": "",
          "type": "uint256"
        }
      ],
      "name": "hasVoted",
      "outputs": [
        {
          "internalType": "bool",
          "name": "",
          "type": "bool"
        }
      ],
      "stateMutability": "view",
      "type": "function"
    },
    {
      "inputs": [
        {
          "internalType": "uint256",
          "name": "",
          "type": "uint256"
        }
      ],
      "name": "itemIdToPost",
      "outputs": [
        {
          "internalType": "uint256",
          "name": "itemId",
          "type": "uint256"
        },
        {
          "internalType": "string",
          "name": "tokenUrl",
          "type": "string"
        },
        {
          "internalType": "uint256",
          "name": "votes",
          "type": "uint256"
        },
        {
          "internalType": "address payable",
          "name": "artist",
          "type": "address"
        },
        {
          "internalType": "enum Storage.Status",
          "name": "status",
          "type": "uint8"
        },
        {
          "internalType": "string",
          "name": "description",
          "type": "string"
        }
      ],
      "stateMutability": "view",
      "type": "function"
    },
    {
      "inputs": [],
      "name": "jackpot",
      "outputs": [
        {
          "internalType": "uint256",
          "name": "",
          "type": "uint256"
        }
      ],
      "stateMutability": "view",
      "type": "function"
    },
    {
      "inputs": [],
      "name": "owner",
      "outputs": [
        {
          "internalType": "address",
          "name": "",
          "type": "address"
        }
      ],
      "stateMutability": "view",
      "type": "function"
    },
    {
      "inputs": [],
      "name": "paused",
      "outputs": [
        {
          "internalType": "bool",
          "name": "",
          "type": "bool"
        }
      ],
      "stateMutability": "view",
      "type": "function"
    },
    {
      "inputs": [],
      "name": "platformPercentageFee",
      "outputs": [
        {
          "internalType": "uint256",
          "name": "",
          "type": "uint256"
        }
      ],
      "stateMutability": "view",
      "type": "function"
    },
    {
      "inputs": [],
      "name": "postingPrice",
      "outputs": [
        {
          "internalType": "uint256",
          "name": "",
          "type": "uint256"
        }
      ],
      "stateMutability": "view",
      "type": "function"
    },
    {
      "inputs": [
        {
          "internalType": "uint256",
          "name": "",
          "type": "uint256"
        }
      ],
      "name": "posts",
      "outputs": [
        {
          "internalType": "uint256",
          "name": "itemId",
          "type": "uint256"
        },
        {
          "internalType": "string",
          "name": "tokenUrl",
          "type": "string"
        },
        {
          "internalType": "uint256",
          "name": "votes",
          "type": "uint256"
        },
        {
          "internalType": "address payable",
          "name": "artist",
          "type": "address"
        },
        {
          "internalType": "enum Storage.Status",
          "name": "status",
          "type": "uint8"
        },
        {
          "internalType": "string",
          "name": "description",
          "type": "string"
        }
      ],
      "stateMutability": "view",
      "type": "function"
    },
    {
      "inputs": [],
      "name": "renounceOwnership",
      "outputs": [],
      "stateMutability": "nonpayable",
      "type": "function"
    },
    {
      "inputs": [],
      "name": "secondPrize",
      "outputs": [
        {
          "internalType": "uint256",
          "name": "",
          "type": "uint256"
        }
      ],
      "stateMutability": "view",
      "type": "function"
    },
    {
      "inputs": [],
      "name": "thirdPrize",
      "outputs": [
        {
          "internalType": "uint256",
          "name": "",
          "type": "uint256"
        }
      ],
      "stateMutability": "view",
      "type": "function"
    },
    {
      "inputs": [
        {
          "internalType": "address",
          "name": "newOwner",
          "type": "address"
        }
      ],
      "name": "transferOwnership",
      "outputs": [],
      "stateMutability": "nonpayable",
      "type": "function"
    },
    {
      "inputs": [
        {
          "internalType": "address",
          "name": "",
          "type": "address"
        },
        {
          "internalType": "uint256",
          "name": "",
          "type": "uint256"
        }
      ],
      "name": "usersPosts",
      "outputs": [
        {
          "internalType": "uint256",
          "name": "itemId",
          "type": "uint256"
        },
        {
          "internalType": "string",
          "name": "tokenUrl",
          "type": "string"
        },
        {
          "internalType": "uint256",
          "name": "votes",
          "type": "uint256"
        },
        {
          "internalType": "address payable",
          "name": "artist",
          "type": "address"
        },
        {
          "internalType": "enum Storage.Status",
          "name": "status",
          "type": "uint8"
        },
        {
          "internalType": "string",
          "name": "description",
          "type": "string"
        }
      ],
      "stateMutability": "view",
      "type": "function"
    },
    {
      "inputs": [],
      "name": "initialize",
      "outputs": [],
      "stateMutability": "nonpayable",
      "type": "function"
    },
    {
      "inputs": [],
      "name": "getMyBalance",
      "outputs": [
        {
          "internalType": "uint256",
          "name": "",
          "type": "uint256"
        }
      ],
      "stateMutability": "view",
      "type": "function"
    },
    {
      "inputs": [],
      "name": "getMyAddress",
      "outputs": [
        {
          "internalType": "address",
          "name": "",
          "type": "address"
        }
      ],
      "stateMutability": "view",
      "type": "function"
    },
    {
      "inputs": [
        {
          "internalType": "address",
          "name": "_artist",
          "type": "address"
        }
      ],
      "name": "artistBalance",
      "outputs": [
        {
          "internalType": "uint256",
          "name": "",
          "type": "uint256"
        }
      ],
      "stateMutability": "view",
      "type": "function"
    },
    {
      "inputs": [],
      "name": "contractBalance",
      "outputs": [
        {
          "internalType": "uint256",
          "name": "",
          "type": "uint256"
        }
      ],
      "stateMutability": "view",
      "type": "function"
    },
    {
      "inputs": [
        {
          "internalType": "uint256",
          "name": "_newFee",
          "type": "uint256"
        }
      ],
      "name": "updateFee",
      "outputs": [
        {
          "internalType": "uint256",
          "name": "",
          "type": "uint256"
        }
      ],
      "stateMutability": "nonpayable",
      "type": "function"
    },
    {
      "inputs": [],
      "name": "deposit",
      "outputs": [
        {
          "internalType": "bool",
          "name": "_success",
          "type": "bool"
        }
      ],
      "stateMutability": "payable",
      "type": "function"
    },
    {
      "inputs": [
        {
          "internalType": "address payable",
          "name": "_to",
          "type": "address"
        }
      ],
      "name": "donateTo",
      "outputs": [
        {
          "internalType": "bool",
          "name": "_success",
          "type": "bool"
        }
      ],
      "stateMutability": "payable",
      "type": "function"
    },
    {
      "inputs": [],
      "name": "withdrawAll",
      "outputs": [
        {
          "internalType": "bool",
          "name": "_success",
          "type": "bool"
        }
      ],
      "stateMutability": "nonpayable",
      "type": "function"
    },
    {
      "inputs": [
        {
          "internalType": "uint256",
          "name": "_amount",
          "type": "uint256"
        }
      ],
      "name": "ownerWithdraw",
      "outputs": [
        {
          "internalType": "bool",
          "name": "_success",
          "type": "bool"
        }
      ],
      "stateMutability": "nonpayable",
      "type": "function"
    },
    {
      "inputs": [
        {
          "internalType": "string",
          "name": "_tokenUrl",
          "type": "string"
        },
        {
          "internalType": "string",
          "name": "_description",
          "type": "string"
        }
      ],
      "name": "createPost",
      "outputs": [
        {
          "internalType": "bool",
          "name": "_success",
          "type": "bool"
        }
      ],
      "stateMutability": "payable",
      "type": "function"
    },
    {
      "inputs": [
        {
          "internalType": "uint256",
          "name": "_newPrice",
          "type": "uint256"
        }
      ],
      "name": "updatePostingPrice",
      "outputs": [
        {
          "internalType": "uint256",
          "name": "",
          "type": "uint256"
        }
      ],
      "stateMutability": "nonpayable",
      "type": "function"
    },
    {
      "inputs": [],
      "name": "fetchPosts",
      "outputs": [
        {
          "components": [
            {
              "internalType": "uint256",
              "name": "itemId",
              "type": "uint256"
            },
            {
              "internalType": "string",
              "name": "tokenUrl",
              "type": "string"
            },
            {
              "internalType": "uint256",
              "name": "votes",
              "type": "uint256"
            },
            {
              "internalType": "address payable",
              "name": "artist",
              "type": "address"
            },
            {
              "internalType": "enum Storage.Status",
              "name": "status",
              "type": "uint8"
            },
            {
              "internalType": "string",
              "name": "description",
              "type": "string"
            }
          ],
          "internalType": "struct Storage.Post[]",
          "name": "",
          "type": "tuple[]"
        }
      ],
      "stateMutability": "view",
      "type": "function"
    },
    {
      "inputs": [],
      "name": "getPostingPrice",
      "outputs": [
        {
          "internalType": "uint256",
          "name": "",
          "type": "uint256"
        }
      ],
      "stateMutability": "view",
      "type": "function"
    },
    {
      "inputs": [
        {
          "internalType": "uint256",
          "name": "itemId",
          "type": "uint256"
        }
      ],
      "name": "upVote",
      "outputs": [],
      "stateMutability": "nonpayable",
      "type": "function"
    },
    {
      "inputs": [
        {
          "internalType": "uint256",
          "name": "itemId",
          "type": "uint256"
        }
      ],
      "name": "closeSinglePost",
      "outputs": [],
      "stateMutability": "nonpayable",
      "type": "function"
    },
    {
      "inputs": [
        {
          "internalType": "enum Storage.Status",
          "name": "_status",
          "type": "uint8"
        }
      ],
      "name": "fetchPostsByStatus",
      "outputs": [
        {
          "components": [
            {
              "internalType": "uint256",
              "name": "itemId",
              "type": "uint256"
            },
            {
              "internalType": "string",
              "name": "tokenUrl",
              "type": "string"
            },
            {
              "internalType": "uint256",
              "name": "votes",
              "type": "uint256"
            },
            {
              "internalType": "address payable",
              "name": "artist",
              "type": "address"
            },
            {
              "internalType": "enum Storage.Status",
              "name": "status",
              "type": "uint8"
            },
            {
              "internalType": "string",
              "name": "description",
              "type": "string"
            }
          ],
          "internalType": "struct Storage.Post[]",
          "name": "",
          "type": "tuple[]"
        }
      ],
      "stateMutability": "view",
      "type": "function"
    },
    {
      "inputs": [
        {
          "internalType": "address",
          "name": "_artist",
          "type": "address"
        }
      ],
      "name": "postsByUser",
      "outputs": [
        {
          "components": [
            {
              "internalType": "uint256",
              "name": "itemId",
              "type": "uint256"
            },
            {
              "internalType": "string",
              "name": "tokenUrl",
              "type": "string"
            },
            {
              "internalType": "uint256",
              "name": "votes",
              "type": "uint256"
            },
            {
              "internalType": "address payable",
              "name": "artist",
              "type": "address"
            },
            {
              "internalType": "enum Storage.Status",
              "name": "status",
              "type": "uint8"
            },
            {
              "internalType": "string",
              "name": "description",
              "type": "string"
            }
          ],
          "internalType": "struct Storage.Post[]",
          "name": "",
          "type": "tuple[]"
        }
      ],
      "stateMutability": "view",
      "type": "function"
    },
    {
      "inputs": [],
      "name": "top10Posts",
      "outputs": [
        {
          "components": [
            {
              "internalType": "uint256",
              "name": "itemId",
              "type": "uint256"
            },
            {
              "internalType": "string",
              "name": "tokenUrl",
              "type": "string"
            },
            {
              "internalType": "uint256",
              "name": "votes",
              "type": "uint256"
            },
            {
              "internalType": "address payable",
              "name": "artist",
              "type": "address"
            },
            {
              "internalType": "enum Storage.Status",
              "name": "status",
              "type": "uint8"
            },
            {
              "internalType": "string",
              "name": "description",
              "type": "string"
            }
          ],
          "internalType": "struct Storage.Post[]",
          "name": "",
          "type": "tuple[]"
        }
      ],
      "stateMutability": "nonpayable",
      "type": "function"
    },
    {
      "inputs": [],
      "name": "topHalfActivePosts",
      "outputs": [
        {
          "components": [
            {
              "internalType": "uint256",
              "name": "itemId",
              "type": "uint256"
            },
            {
              "internalType": "string",
              "name": "tokenUrl",
              "type": "string"
            },
            {
              "internalType": "uint256",
              "name": "votes",
              "type": "uint256"
            },
            {
              "internalType": "address payable",
              "name": "artist",
              "type": "address"
            },
            {
              "internalType": "enum Storage.Status",
              "name": "status",
              "type": "uint8"
            },
            {
              "internalType": "string",
              "name": "description",
              "type": "string"
            }
          ],
          "internalType": "struct Storage.Post[]",
          "name": "",
          "type": "tuple[]"
        }
      ],
      "stateMutability": "nonpayable",
      "type": "function"
    },
    {
      "inputs": [],
      "name": "top5ActivePosts",
      "outputs": [
        {
          "components": [
            {
              "internalType": "uint256",
              "name": "itemId",
              "type": "uint256"
            },
            {
              "internalType": "string",
              "name": "tokenUrl",
              "type": "string"
            },
            {
              "internalType": "uint256",
              "name": "votes",
              "type": "uint256"
            },
            {
              "internalType": "address payable",
              "name": "artist",
              "type": "address"
            },
            {
              "internalType": "enum Storage.Status",
              "name": "status",
              "type": "uint8"
            },
            {
              "internalType": "string",
              "name": "description",
              "type": "string"
            }
          ],
          "internalType": "struct Storage.Post[]",
          "name": "",
          "type": "tuple[]"
        }
      ],
      "stateMutability": "nonpayable",
      "type": "function"
    },
    {
      "inputs": [],
      "name": "_topHalfPayout",
      "outputs": [],
      "stateMutability": "nonpayable",
      "type": "function"
    },
    {
      "inputs": [],
      "name": "_calculateTop5Payout",
      "outputs": [
        {
          "internalType": "bool",
          "name": "_success",
          "type": "bool"
        }
      ],
      "stateMutability": "nonpayable",
      "type": "function"
    },
    {
      "inputs": [],
      "name": "_top5Payout",
      "outputs": [
        {
          "internalType": "bool",
          "name": "_success",
          "type": "bool"
        }
      ],
      "stateMutability": "nonpayable",
      "type": "function"
    },
    {
      "inputs": [],
      "name": "_closeAllPosts",
      "outputs": [
        {
          "internalType": "bool",
          "name": "_success",
          "type": "bool"
        }
      ],
      "stateMutability": "nonpayable",
      "type": "function"
    },
    {
      "inputs": [],
      "name": "refresh",
      "outputs": [
        {
          "internalType": "bool",
          "name": "_success",
          "type": "bool"
        }
      ],
      "stateMutability": "nonpayable",
      "type": "function"
    }
  ],
  "bytecode": "0x608060405234801561001057600080fd5b50615f9580620000216000396000f3fe6080604052600436106102665760003560e01c80636b31ee01116101445780639a166299116100b6578063d0e30db01161007a578063d0e30db014610957578063ec859db514610975578063f2fde38b1461099e578063f57df33e146109c7578063f8ac93e8146109f7578063fb4774aa14610a2257610266565b80639a16629914610894578063a75ffd71146108bf578063abaddd7f146108ea578063ac0afbb714610915578063b97c4f391461092c57610266565b8063835a8ed311610108578063835a8ed314610780578063853828b6146107ab5780638b7afe2e146107d65780638da5cb5b146108015780639012c4a81461082c578063932a1f531461086957610266565b80636b31ee01146106c15780636c962a86146106ec578063715018a6146107155780637670b8a21461072c5780638129fc1c1461076957610266565b8063350d4595116101dd57806342545825116101a1578063425458251461057f5780634be751a7146105bc5780634c738909146105fe5780634d41d393146106295780635c975abb1461066b578063643945961461069657610266565b8063350d4595146104a3578063392338f5146104ce57806339ac1f86146104fe5780633ad895b7146105295780633d70bc521461055457610266565b8063287b65b21161022f578063287b65b21461037d5780632a89c16b146103a85780632e98520c146103d3578063339fe856146103fe57806333f707d11461043b57806334a7f1931461047857610266565b8062d450851461026b5780630b1e7f83146102a85780630f43e0df146102ea5780631248499a1461031557806327e235e314610340575b600080fd5b34801561027757600080fd5b50610292600480360381019061028d9190614f4d565b610a5f565b60405161029f91906154ad565b60405180910390f35b3480156102b457600080fd5b506102cf60048036038101906102ca9190614fe2565b610f13565b6040516102e19695949392919061572a565b60405180910390f35b3480156102f657600080fd5b506102ff61109c565b60405161030c91906154ff565b60405180910390f35b34801561032157600080fd5b5061032a6118b7565b60405161033791906156b5565b60405180910390f35b34801561034c57600080fd5b5061036760048036038101906103629190614ebf565b6118bd565b60405161037491906156b5565b60405180910390f35b34801561038957600080fd5b506103926118d5565b60405161039f91906156b5565b60405180910390f35b3480156103b457600080fd5b506103bd6118db565b6040516103ca91906154ff565b60405180910390f35b3480156103df57600080fd5b506103e8611b4d565b6040516103f591906156b5565b60405180910390f35b34801561040a57600080fd5b5061042560048036038101906104209190614ebf565b611b53565b60405161043291906154ad565b60405180910390f35b34801561044757600080fd5b50610462600480360381019061045d9190614fe2565b611fa5565b60405161046f91906154ff565b60405180910390f35b34801561048457600080fd5b5061048d6120b0565b60405161049a91906156b5565b60405180910390f35b3480156104af57600080fd5b506104b86120bc565b6040516104c591906154ff565b60405180910390f35b6104e860048036038101906104e39190614f76565b6121bd565b6040516104f591906154ff565b60405180910390f35b34801561050a57600080fd5b50610513612630565b60405161052091906154ad565b60405180910390f35b34801561053557600080fd5b5061053e612799565b60405161054b91906154ad565b60405180910390f35b34801561056057600080fd5b506105696128fa565b60405161057691906156b5565b60405180910390f35b34801561058b57600080fd5b506105a660048036038101906105a19190614f11565b612900565b6040516105b391906154ff565b60405180910390f35b3480156105c857600080fd5b506105e360048036038101906105de9190614f11565b61292f565b6040516105f59695949392919061572a565b60405180910390f35b34801561060a57600080fd5b50610613612ac5565b60405161062091906156b5565b60405180910390f35b34801561063557600080fd5b50610650600480360381019061064b9190614fe2565b612b0c565b6040516106629695949392919061572a565b60405180910390f35b34801561067757600080fd5b50610680612c85565b60405161068d91906154ff565b60405180910390f35b3480156106a257600080fd5b506106ab612c9c565b6040516106b891906154ad565b60405180910390f35b3480156106cd57600080fd5b506106d6612dea565b6040516106e391906156b5565b60405180910390f35b3480156106f857600080fd5b50610713600480360381019061070e9190614fe2565b612df0565b005b34801561072157600080fd5b5061072a613126565b005b34801561073857600080fd5b50610753600480360381019061074e9190614ebf565b6131ae565b60405161076091906156b5565b60405180910390f35b34801561077557600080fd5b5061077e6131f7565b005b34801561078c57600080fd5b506107956132ab565b6040516107a291906156b5565b60405180910390f35b3480156107b757600080fd5b506107c06132b1565b6040516107cd91906154ff565b60405180910390f35b3480156107e257600080fd5b506107eb613589565b6040516107f891906156b5565b60405180910390f35b34801561080d57600080fd5b5061081661360d565b6040516108239190615417565b60405180910390f35b34801561083857600080fd5b50610853600480360381019061084e9190614fe2565b613637565b60405161086091906156b5565b60405180910390f35b34801561087557600080fd5b5061087e6136c6565b60405161088b91906156b5565b60405180910390f35b3480156108a057600080fd5b506108a96136d0565b6040516108b69190615417565b60405180910390f35b3480156108cb57600080fd5b506108d46136d8565b6040516108e191906156b5565b60405180910390f35b3480156108f657600080fd5b506108ff6136de565b60405161090c91906154ad565b60405180910390f35b34801561092157600080fd5b5061092a613952565b005b34801561093857600080fd5b50610941613b57565b60405161094e91906156b5565b60405180910390f35b61095f613b5d565b60405161096c91906154ff565b60405180910390f35b34801561098157600080fd5b5061099c60048036038101906109979190614fe2565b613cc0565b005b3480156109aa57600080fd5b506109c560048036038101906109c09190614ebf565b613f90565b005b6109e160048036038101906109dc9190614ee8565b614088565b6040516109ee91906154ff565b60405180910390f35b348015610a0357600080fd5b50610a0c614343565b604051610a1991906154ff565b60405180910390f35b348015610a2e57600080fd5b50610a496004803603810190610a449190614fe2565b61441b565b604051610a5691906156b5565b60405180910390f35b60606000610a6d60c96144aa565b905060008060005b83811015610b3b57856001811115610ab6577f4e487b7100000000000000000000000000000000000000000000000000000000600052602160045260246000fd5b60d5600083815260200190815260200160002060030160149054906101000a900460ff166001811115610b12577f4e487b7100000000000000000000000000000000000000000000000000000000600052602160045260246000fd5b1415610b2857600183610b259190615860565b92505b8080610b3390615b2a565b915050610a75565b5060008267ffffffffffffffff811115610b7e577f4e487b7100000000000000000000000000000000000000000000000000000000600052604160045260246000fd5b604051908082528060200260200182016040528015610bb757816020015b610ba4614c4f565b815260200190600190039081610b9c5790505b50905060005b84811015610f0657866001811115610bfe577f4e487b7100000000000000000000000000000000000000000000000000000000600052602160045260246000fd5b60d5600083815260200190815260200160002060030160149054906101000a900460ff166001811115610c5a577f4e487b7100000000000000000000000000000000000000000000000000000000600052602160045260246000fd5b1415610ef3576000819050600060d560008381526020019081526020016000209050806040518060c001604052908160008201548152602001600182018054610ca290615ac7565b80601f0160208091040260200160405190810160405280929190818152602001828054610cce90615ac7565b8015610d1b5780601f10610cf057610100808354040283529160200191610d1b565b820191906000526020600020905b815481529060010190602001808311610cfe57829003601f168201915b50505050508152602001600282015481526020016003820160009054906101000a900473ffffffffffffffffffffffffffffffffffffffff1673ffffffffffffffffffffffffffffffffffffffff1673ffffffffffffffffffffffffffffffffffffffff1681526020016003820160149054906101000a900460ff166001811115610dcf577f4e487b7100000000000000000000000000000000000000000000000000000000600052602160045260246000fd5b6001811115610e07577f4e487b7100000000000000000000000000000000000000000000000000000000600052602160045260246000fd5b8152602001600482018054610e1b90615ac7565b80601f0160208091040260200160405190810160405280929190818152602001828054610e4790615ac7565b8015610e945780601f10610e6957610100808354040283529160200191610e94565b820191906000526020600020905b815481529060010190602001808311610e7757829003601f168201915b505050505081525050848681518110610ed6577f4e487b7100000000000000000000000000000000000000000000000000000000600052603260045260246000fd5b6020026020010181905250600185610eee9190615860565b945050505b8080610efe90615b2a565b915050610bbd565b5080945050505050919050565b60d28181548110610f2357600080fd5b9060005260206000209060050201600091509050806000015490806001018054610f4c90615ac7565b80601f0160208091040260200160405190810160405280929190818152602001828054610f7890615ac7565b8015610fc55780601f10610f9a57610100808354040283529160200191610fc5565b820191906000526020600020905b815481529060010190602001808311610fa857829003601f168201915b5050505050908060020154908060030160009054906101000a900473ffffffffffffffffffffffffffffffffffffffff16908060030160149054906101000a900460ff169080600401805461101990615ac7565b80601f016020809104026020016040519081016040528092919081815260200182805461104590615ac7565b80156110925780601f1061106757610100808354040283529160200191611092565b820191906000526020600020905b81548152906001019060200180831161107557829003601f168201915b5050505050905086565b60006110a66144b8565b73ffffffffffffffffffffffffffffffffffffffff166110c461360d565b73ffffffffffffffffffffffffffffffffffffffff161461111a576040517f08c379a000000000000000000000000000000000000000000000000000000000815260040161111190615615565b60405180910390fd5b6000611124612630565b90506005815110156112d2576111c960cc5460d3600084600081518110611174577f4e487b7100000000000000000000000000000000000000000000000000000000600052603260045260246000fd5b60200260200101516060015173ffffffffffffffffffffffffffffffffffffffff1673ffffffffffffffffffffffffffffffffffffffff168152602001908152602001600020546144c090919063ffffffff16565b60d3600083600081518110611207577f4e487b7100000000000000000000000000000000000000000000000000000000600052603260045260246000fd5b60200260200101516060015173ffffffffffffffffffffffffffffffffffffffff1673ffffffffffffffffffffffffffffffffffffffff168152602001908152602001600020819055507f4a524d7814d4c8fec495e44920564225289a257e33715f13e7790a931529f515816000815181106112ac577f4e487b7100000000000000000000000000000000000000000000000000000000600052603260045260246000fd5b6020026020010151606001516040516112c59190615432565b60405180910390a1611878565b61136b60cd5460d3600084600081518110611316577f4e487b7100000000000000000000000000000000000000000000000000000000600052603260045260246000fd5b60200260200101516060015173ffffffffffffffffffffffffffffffffffffffff1673ffffffffffffffffffffffffffffffffffffffff168152602001908152602001600020546144c090919063ffffffff16565b60d36000836000815181106113a9577f4e487b7100000000000000000000000000000000000000000000000000000000600052603260045260246000fd5b60200260200101516060015173ffffffffffffffffffffffffffffffffffffffff1673ffffffffffffffffffffffffffffffffffffffff1681526020019081526020016000208190555061148c60ce5460d3600084600181518110611437577f4e487b7100000000000000000000000000000000000000000000000000000000600052603260045260246000fd5b60200260200101516060015173ffffffffffffffffffffffffffffffffffffffff1673ffffffffffffffffffffffffffffffffffffffff168152602001908152602001600020546144c090919063ffffffff16565b60d36000836001815181106114ca577f4e487b7100000000000000000000000000000000000000000000000000000000600052603260045260246000fd5b60200260200101516060015173ffffffffffffffffffffffffffffffffffffffff1673ffffffffffffffffffffffffffffffffffffffff168152602001908152602001600020819055506115ad60cf5460d3600084600281518110611558577f4e487b7100000000000000000000000000000000000000000000000000000000600052603260045260246000fd5b60200260200101516060015173ffffffffffffffffffffffffffffffffffffffff1673ffffffffffffffffffffffffffffffffffffffff168152602001908152602001600020546144c090919063ffffffff16565b60d36000836002815181106115eb577f4e487b7100000000000000000000000000000000000000000000000000000000600052603260045260246000fd5b60200260200101516060015173ffffffffffffffffffffffffffffffffffffffff1673ffffffffffffffffffffffffffffffffffffffff168152602001908152602001600020819055506116ce60d05460d3600084600381518110611679577f4e487b7100000000000000000000000000000000000000000000000000000000600052603260045260246000fd5b60200260200101516060015173ffffffffffffffffffffffffffffffffffffffff1673ffffffffffffffffffffffffffffffffffffffff168152602001908152602001600020546144c090919063ffffffff16565b60d360008360038151811061170c577f4e487b7100000000000000000000000000000000000000000000000000000000600052603260045260246000fd5b60200260200101516060015173ffffffffffffffffffffffffffffffffffffffff1673ffffffffffffffffffffffffffffffffffffffff168152602001908152602001600020819055506117ef60d15460d360008460048151811061179a577f4e487b7100000000000000000000000000000000000000000000000000000000600052603260045260246000fd5b60200260200101516060015173ffffffffffffffffffffffffffffffffffffffff1673ffffffffffffffffffffffffffffffffffffffff168152602001908152602001600020546144c090919063ffffffff16565b60d360008360048151811061182d577f4e487b7100000000000000000000000000000000000000000000000000000000600052603260045260246000fd5b60200260200101516060015173ffffffffffffffffffffffffffffffffffffffff1673ffffffffffffffffffffffffffffffffffffffff168152602001908152602001600020819055505b7fabe096413b0090f77738b08905ddf3d8c92d534a075dd3f04c4f534e29b0f07e816040516118a791906154ad565b60405180910390a1600191505090565b60ca5481565b60d36020528060005260406000206000915090505481565b60d05481565b60006118e56144b8565b73ffffffffffffffffffffffffffffffffffffffff1661190361360d565b73ffffffffffffffffffffffffffffffffffffffff1614611959576040517f08c379a000000000000000000000000000000000000000000000000000000000815260040161195090615615565b60405180910390fd5b60006119656000610a5f565b90506000611971612799565b9050600061198a825184516144d690919063ffffffff16565b905060006119a360cb54836144ec90919063ffffffff16565b905060006119b082614502565b90506119c581836144d690919063ffffffff16565b60cc819055506119f460646119e6603260cc546144ec90919063ffffffff16565b61453890919063ffffffff16565b60cd81905550611a236064611a15601e60cc546144ec90919063ffffffff16565b61453890919063ffffffff16565b60ce81905550611a526064611a44600a60cc546144ec90919063ffffffff16565b61453890919063ffffffff16565b60cf81905550611a816064611a73600660cc546144ec90919063ffffffff16565b61453890919063ffffffff16565b60d081905550611ab06064611aa2600460cc546144ec90919063ffffffff16565b61453890919063ffffffff16565b60d18190555060cc54611b0c60d154611afe60d054611af060cf54611ae260ce5460cd546144c090919063ffffffff16565b6144c090919063ffffffff16565b6144c090919063ffffffff16565b6144c090919063ffffffff16565b1115611b41577f4e487b7100000000000000000000000000000000000000000000000000000000600052600160045260246000fd5b60019550505050505090565b60cd5481565b60606000611b6160c96144aa565b905060008060005b83811015611bfe578573ffffffffffffffffffffffffffffffffffffffff1660d5600083815260200190815260200160002060030160009054906101000a900473ffffffffffffffffffffffffffffffffffffffff1673ffffffffffffffffffffffffffffffffffffffff161415611beb57600183611be89190615860565b92505b8080611bf690615b2a565b915050611b69565b5060008267ffffffffffffffff811115611c41577f4e487b7100000000000000000000000000000000000000000000000000000000600052604160045260246000fd5b604051908082528060200260200182016040528015611c7a57816020015b611c67614c4f565b815260200190600190039081611c5f5790505b50905060005b84811015611f98578673ffffffffffffffffffffffffffffffffffffffff1660d5600083815260200190815260200160002060030160009054906101000a900473ffffffffffffffffffffffffffffffffffffffff1673ffffffffffffffffffffffffffffffffffffffff161415611f85576000819050600060d560008381526020019081526020016000209050806040518060c001604052908160008201548152602001600182018054611d3490615ac7565b80601f0160208091040260200160405190810160405280929190818152602001828054611d6090615ac7565b8015611dad5780601f10611d8257610100808354040283529160200191611dad565b820191906000526020600020905b815481529060010190602001808311611d9057829003601f168201915b50505050508152602001600282015481526020016003820160009054906101000a900473ffffffffffffffffffffffffffffffffffffffff1673ffffffffffffffffffffffffffffffffffffffff1673ffffffffffffffffffffffffffffffffffffffff1681526020016003820160149054906101000a900460ff166001811115611e61577f4e487b7100000000000000000000000000000000000000000000000000000000600052602160045260246000fd5b6001811115611e99577f4e487b7100000000000000000000000000000000000000000000000000000000600052602160045260246000fd5b8152602001600482018054611ead90615ac7565b80601f0160208091040260200160405190810160405280929190818152602001828054611ed990615ac7565b8015611f265780601f10611efb57610100808354040283529160200191611f26565b820191906000526020600020905b815481529060010190602001808311611f0957829003601f168201915b505050505081525050848681518110611f68577f4e487b7100000000000000000000000000000000000000000000000000000000600052603260045260246000fd5b6020026020010181905250600185611f809190615860565b945050505b8080611f9090615b2a565b915050611c80565b5080945050505050919050565b6000611faf6144b8565b73ffffffffffffffffffffffffffffffffffffffff16611fcd61360d565b73ffffffffffffffffffffffffffffffffffffffff1614612023576040517f08c379a000000000000000000000000000000000000000000000000000000000815260040161201a90615615565b60405180910390fd5b4782111561203057600080fd5b60003373ffffffffffffffffffffffffffffffffffffffff168360405161205690615402565b60006040518083038185875af1925050503d8060008114612093576040519150601f19603f3d011682016040523d82523d6000602084013e612098565b606091505b50509050806120a657600080fd5b6001915050919050565b60c98060000154905081565b60006120c66144b8565b73ffffffffffffffffffffffffffffffffffffffff166120e461360d565b73ffffffffffffffffffffffffffffffffffffffff161461213a576040517f08c379a000000000000000000000000000000000000000000000000000000000815260040161213190615615565b60405180910390fd5b60006121466000610a5f565b905060005b81518110156121b4576121a1828281518110612190577f4e487b7100000000000000000000000000000000000000000000000000000000600052603260045260246000fd5b602002602001015160000151612df0565b80806121ac90615b2a565b91505061214b565b50600191505090565b600060026001541415612205576040517f08c379a00000000000000000000000000000000000000000000000000000000081526004016121fc90615695565b60405180910390fd5b6002600181905550600061221960c96144aa565b905060006040518060c00160405280838152602001868152602001600081526020013373ffffffffffffffffffffffffffffffffffffffff16815260200160006001811115612291577f4e487b7100000000000000000000000000000000000000000000000000000000600052602160045260246000fd5b815260200185815250905060cb5460d360003373ffffffffffffffffffffffffffffffffffffffff1673ffffffffffffffffffffffffffffffffffffffff168152602001908152602001600020541015612320576040517f08c379a000000000000000000000000000000000000000000000000000000000815260040161231790615635565b60405180910390fd5b61237460cb5460d360003373ffffffffffffffffffffffffffffffffffffffff1673ffffffffffffffffffffffffffffffffffffffff168152602001908152602001600020546144d690919063ffffffff16565b60d360003373ffffffffffffffffffffffffffffffffffffffff1673ffffffffffffffffffffffffffffffffffffffff1681526020019081526020016000208190555060d2819080600181540180825580915050600190039060005260206000209060050201600090919091909150600082015181600001556020820151816001019080519060200190612409929190614cd3565b506040820151816002015560608201518160030160006101000a81548173ffffffffffffffffffffffffffffffffffffffff021916908373ffffffffffffffffffffffffffffffffffffffff16021790555060808201518160030160146101000a81548160ff021916908360018111156124ac577f4e487b7100000000000000000000000000000000000000000000000000000000600052602160045260246000fd5b021790555060a08201518160040190805190602001906124cd929190614cd3565b5050508060d5600084815260200190815260200160002060008201518160000155602082015181600101908051906020019061250a929190614cd3565b506040820151816002015560608201518160030160006101000a81548173ffffffffffffffffffffffffffffffffffffffff021916908373ffffffffffffffffffffffffffffffffffffffff16021790555060808201518160030160146101000a81548160ff021916908360018111156125ad577f4e487b7100000000000000000000000000000000000000000000000000000000600052602160045260246000fd5b021790555060a08201518160040190805190602001906125ce929190614cd3565b509050506125dc60c961454e565b7fe14296bdd04d4aa0eedc4ab7c62dec271b93e7f66898b1cadbd9e35f36e11f0d828660003360006040516126159594939291906156d0565b60405180910390a16001925050506001808190555092915050565b6060600061263e6000610a5f565b9050612659816000600184516126549190615941565b614564565b600060059050808251101561266d57815190505b60008167ffffffffffffffff8111156126af577f4e487b7100000000000000000000000000000000000000000000000000000000600052604160045260246000fd5b6040519080825280602002602001820160405280156126e857816020015b6126d5614c4f565b8152602001906001900390816126cd5790505b50905060005b815181101561278f57838181518110612730577f4e487b7100000000000000000000000000000000000000000000000000000000600052603260045260246000fd5b6020026020010151828281518110612771577f4e487b7100000000000000000000000000000000000000000000000000000000600052603260045260246000fd5b6020026020010181905250808061278790615b2a565b9150506126ee565b5080935050505090565b606060006127a76000610a5f565b90506127c2816000600184516127bd9190615941565b614564565b6000600282516127d291906158b6565b67ffffffffffffffff811115612811577f4e487b7100000000000000000000000000000000000000000000000000000000600052604160045260246000fd5b60405190808252806020026020018201604052801561284a57816020015b612837614c4f565b81526020019060019003908161282f5790505b50905060005b81518110156128f157828181518110612892577f4e487b7100000000000000000000000000000000000000000000000000000000600052603260045260246000fd5b60200260200101518282815181106128d3577f4e487b7100000000000000000000000000000000000000000000000000000000600052603260045260246000fd5b602002602001018190525080806128e990615b2a565b915050612850565b50809250505090565b60ce5481565b60d66020528160005260406000206020528060005260406000206000915091509054906101000a900460ff1681565b60d4602052816000526040600020818154811061294b57600080fd5b90600052602060002090600502016000915091505080600001549080600101805461297590615ac7565b80601f01602080910402602001604051908101604052809291908181526020018280546129a190615ac7565b80156129ee5780601f106129c3576101008083540402835291602001916129ee565b820191906000526020600020905b8154815290600101906020018083116129d157829003601f168201915b5050505050908060020154908060030160009054906101000a900473ffffffffffffffffffffffffffffffffffffffff16908060030160149054906101000a900460ff1690806004018054612a4290615ac7565b80601f0160208091040260200160405190810160405280929190818152602001828054612a6e90615ac7565b8015612abb5780601f10612a9057610100808354040283529160200191612abb565b820191906000526020600020905b815481529060010190602001808311612a9e57829003601f168201915b5050505050905086565b600060d360003373ffffffffffffffffffffffffffffffffffffffff1673ffffffffffffffffffffffffffffffffffffffff16815260200190815260200160002054905090565b60d5602052806000526040600020600091509050806000015490806001018054612b3590615ac7565b80601f0160208091040260200160405190810160405280929190818152602001828054612b6190615ac7565b8015612bae5780601f10612b8357610100808354040283529160200191612bae565b820191906000526020600020905b815481529060010190602001808311612b9157829003601f168201915b5050505050908060020154908060030160009054906101000a900473ffffffffffffffffffffffffffffffffffffffff16908060030160149054906101000a900460ff1690806004018054612c0290615ac7565b80601f0160208091040260200160405190810160405280929190818152602001828054612c2e90615ac7565b8015612c7b5780601f10612c5057610100808354040283529160200191612c7b565b820191906000526020600020905b815481529060010190602001808311612c5e57829003601f168201915b5050505050905086565b6000606560009054906101000a900460ff16905090565b60606000612ca8614818565b90506000600a9050600a82511015612cbf57815190505b60008167ffffffffffffffff811115612d01577f4e487b7100000000000000000000000000000000000000000000000000000000600052604160045260246000fd5b604051908082528060200260200182016040528015612d3a57816020015b612d27614c4f565b815260200190600190039081612d1f5790505b50905060005b82811015612de057838181518110612d81577f4e487b7100000000000000000000000000000000000000000000000000000000600052603260045260246000fd5b6020026020010151828281518110612dc2577f4e487b7100000000000000000000000000000000000000000000000000000000600052603260045260246000fd5b60200260200101819052508080612dd890615b2a565b915050612d40565b5080935050505090565b60cc5481565b612df86144b8565b73ffffffffffffffffffffffffffffffffffffffff16612e1661360d565b73ffffffffffffffffffffffffffffffffffffffff1614612e6c576040517f08c379a0000000000000000000000000000000000000000000000000000000008152600401612e6390615615565b60405180910390fd5b60006001811115612ea6577f4e487b7100000000000000000000000000000000000000000000000000000000600052602160045260246000fd5b60d5600083815260200190815260200160002060030160149054906101000a900460ff166001811115612f02577f4e487b7100000000000000000000000000000000000000000000000000000000600052602160045260246000fd5b14612f42576040517f08c379a0000000000000000000000000000000000000000000000000000000008152600401612f3990615675565b60405180910390fd5b600160d5600083815260200190815260200160002060030160146101000a81548160ff02191690836001811115612fa2577f4e487b7100000000000000000000000000000000000000000000000000000000600052602160045260246000fd5b021790555060d5600082815260200190815260200160002060d28281548110612ff4577f4e487b7100000000000000000000000000000000000000000000000000000000600052603260045260246000fd5b906000526020600020906005020160008201548160000155600182018160010190805461302090615ac7565b61302b929190614d59565b50600282015481600201556003820160009054906101000a900473ffffffffffffffffffffffffffffffffffffffff168160030160006101000a81548173ffffffffffffffffffffffffffffffffffffffff021916908373ffffffffffffffffffffffffffffffffffffffff1602179055506003820160149054906101000a900460ff168160030160146101000a81548160ff021916908360018111156130fb577f4e487b7100000000000000000000000000000000000000000000000000000000600052602160045260246000fd5b0217905550600482018160040190805461311490615ac7565b61311f929190614d59565b5090505050565b61312e6144b8565b73ffffffffffffffffffffffffffffffffffffffff1661314c61360d565b73ffffffffffffffffffffffffffffffffffffffff16146131a2576040517f08c379a000000000000000000000000000000000000000000000000000000000815260040161319990615615565b60405180910390fd5b6131ac6000614846565b565b600060d360008373ffffffffffffffffffffffffffffffffffffffff1673ffffffffffffffffffffffffffffffffffffffff168152602001908152602001600020549050919050565b6000613203600161490c565b90508015613227576001600060016101000a81548160ff0219169083151502179055505b61322f6149fc565b613237614a55565b61323f614aae565b600a60ca81905550606460cb8190555080156132a85760008060016101000a81548160ff0219169083151502179055507f7f26b83ff96e1f2b6a682f133852f6798a09c465da95921460cefb3847402498600160405161329f919061551a565b60405180910390a15b50565b60cf5481565b6000600260015414156132f9576040517f08c379a00000000000000000000000000000000000000000000000000000000081526004016132f090615695565b60405180910390fd5b6002600181905550613309612c85565b15613349576040517f08c379a000000000000000000000000000000000000000000000000000000000815260040161334090615595565b60405180910390fd5b600060d360003373ffffffffffffffffffffffffffffffffffffffff1673ffffffffffffffffffffffffffffffffffffffff16815260200190815260200160002054116133cb576040517f08c379a00000000000000000000000000000000000000000000000000000000081526004016133c290615575565b60405180910390fd5b600060d360003373ffffffffffffffffffffffffffffffffffffffff1673ffffffffffffffffffffffffffffffffffffffff168152602001908152602001600020549050600060d360003373ffffffffffffffffffffffffffffffffffffffff1673ffffffffffffffffffffffffffffffffffffffff1681526020019081526020016000208190555060003373ffffffffffffffffffffffffffffffffffffffff168260405161347a90615402565b60006040518083038185875af1925050503d80600081146134b7576040519150601f19603f3d011682016040523d82523d6000602084013e6134bc565b606091505b50509050806134ca57600080fd5b600060d360003373ffffffffffffffffffffffffffffffffffffffff1673ffffffffffffffffffffffffffffffffffffffff1681526020019081526020016000205414613540577f4e487b7100000000000000000000000000000000000000000000000000000000600052600160045260246000fd5b7f37de38ee9a9caf9879c2a0b08382797fa0ed8f24ec7e9cf1028cd3b018ec95a5338360405161357192919061544d565b60405180910390a16001925050506001808190555090565b60006135936144b8565b73ffffffffffffffffffffffffffffffffffffffff166135b161360d565b73ffffffffffffffffffffffffffffffffffffffff1614613607576040517f08c379a00000000000000000000000000000000000000000000000000000000081526004016135fe90615615565b60405180910390fd5b47905090565b6000609760009054906101000a900473ffffffffffffffffffffffffffffffffffffffff16905090565b60006136416144b8565b73ffffffffffffffffffffffffffffffffffffffff1661365f61360d565b73ffffffffffffffffffffffffffffffffffffffff16146136b5576040517f08c379a00000000000000000000000000000000000000000000000000000000081526004016136ac90615615565b60405180910390fd5b8160ca8190555060ca549050919050565b600060cb54905090565b600033905090565b60d15481565b606060d2805480602002602001604051908101604052809291908181526020016000905b8282101561394957838290600052602060002090600502016040518060c00160405290816000820154815260200160018201805461373f90615ac7565b80601f016020809104026020016040519081016040528092919081815260200182805461376b90615ac7565b80156137b85780601f1061378d576101008083540402835291602001916137b8565b820191906000526020600020905b81548152906001019060200180831161379b57829003601f168201915b50505050508152602001600282015481526020016003820160009054906101000a900473ffffffffffffffffffffffffffffffffffffffff1673ffffffffffffffffffffffffffffffffffffffff1673ffffffffffffffffffffffffffffffffffffffff1681526020016003820160149054906101000a900460ff16600181111561386c577f4e487b7100000000000000000000000000000000000000000000000000000000600052602160045260246000fd5b60018111156138a4577f4e487b7100000000000000000000000000000000000000000000000000000000600052602160045260246000fd5b81526020016004820180546138b890615ac7565b80601f01602080910402602001604051908101604052809291908181526020018280546138e490615ac7565b80156139315780601f1061390657610100808354040283529160200191613931565b820191906000526020600020905b81548152906001019060200180831161391457829003601f168201915b50505050508152505081526020019060010190613702565b50505050905090565b61395a6144b8565b73ffffffffffffffffffffffffffffffffffffffff1661397861360d565b73ffffffffffffffffffffffffffffffffffffffff16146139ce576040517f08c379a00000000000000000000000000000000000000000000000000000000081526004016139c590615615565b60405180910390fd5b60006139d8612799565b905060005b8151811015613b1857613a7e60cb5460d36000858581518110613a29577f4e487b7100000000000000000000000000000000000000000000000000000000600052603260045260246000fd5b60200260200101516060015173ffffffffffffffffffffffffffffffffffffffff1673ffffffffffffffffffffffffffffffffffffffff168152602001908152602001600020546144c090919063ffffffff16565b60d36000848481518110613abb577f4e487b7100000000000000000000000000000000000000000000000000000000600052603260045260246000fd5b60200260200101516060015173ffffffffffffffffffffffffffffffffffffffff1673ffffffffffffffffffffffffffffffffffffffff168152602001908152602001600020819055508080613b1090615b2a565b9150506139dd565b507fee79cb05bf04b8975448bff367bf7e3022fae896f6796285789774bfe0c133e38160cb54604051613b4c9291906154cf565b60405180910390a150565b60cb5481565b6000613b67612c85565b15613ba7576040517f08c379a0000000000000000000000000000000000000000000000000000000008152600401613b9e90615595565b60405180910390fd5b6000341415613beb576040517f08c379a0000000000000000000000000000000000000000000000000000000008152600401613be2906155f5565b60405180910390fd5b613c3d3460d360003373ffffffffffffffffffffffffffffffffffffffff1673ffffffffffffffffffffffffffffffffffffffff168152602001908152602001600020546144c090919063ffffffff16565b60d360003373ffffffffffffffffffffffffffffffffffffffff1673ffffffffffffffffffffffffffffffffffffffff168152602001908152602001600020819055507f90a0188b275da558b9b9c9253accf8577e2b1add104b274db4e371fd84ce99703334604051613cb192919061544d565b60405180910390a16001905090565b6000151560d660003373ffffffffffffffffffffffffffffffffffffffff1673ffffffffffffffffffffffffffffffffffffffff168152602001908152602001600020600083815260200190815260200160002060009054906101000a900460ff16151514613d64576040517f08c379a0000000000000000000000000000000000000000000000000000000008152600401613d5b906155b5565b60405180910390fd5b613d8e600160d56000848152602001908152602001600020600201546144c090919063ffffffff16565b60d560008381526020019081526020016000206002018190555060d5600082815260200190815260200160002060d28281548110613df5577f4e487b7100000000000000000000000000000000000000000000000000000000600052603260045260246000fd5b9060005260206000209060050201600082015481600001556001820181600101908054613e2190615ac7565b613e2c929190614d59565b50600282015481600201556003820160009054906101000a900473ffffffffffffffffffffffffffffffffffffffff168160030160006101000a81548173ffffffffffffffffffffffffffffffffffffffff021916908373ffffffffffffffffffffffffffffffffffffffff1602179055506003820160149054906101000a900460ff168160030160146101000a81548160ff02191690836001811115613efc577f4e487b7100000000000000000000000000000000000000000000000000000000600052602160045260246000fd5b02179055506004820181600401908054613f1590615ac7565b613f20929190614d59565b50905050600160d660003373ffffffffffffffffffffffffffffffffffffffff1673ffffffffffffffffffffffffffffffffffffffff168152602001908152602001600020600083815260200190815260200160002060006101000a81548160ff02191690831515021790555050565b613f986144b8565b73ffffffffffffffffffffffffffffffffffffffff16613fb661360d565b73ffffffffffffffffffffffffffffffffffffffff161461400c576040517f08c379a000000000000000000000000000000000000000000000000000000000815260040161400390615615565b60405180910390fd5b600073ffffffffffffffffffffffffffffffffffffffff168173ffffffffffffffffffffffffffffffffffffffff16141561407c576040517f08c379a000000000000000000000000000000000000000000000000000000000815260040161407390615535565b60405180910390fd5b61408581614846565b50565b6000614092612c85565b156140d2576040517f08c379a00000000000000000000000000000000000000000000000000000000081526004016140c990615595565b60405180910390fd5b3460d360003373ffffffffffffffffffffffffffffffffffffffff1673ffffffffffffffffffffffffffffffffffffffff168152602001908152602001600020541015614154576040517f08c379a000000000000000000000000000000000000000000000000000000000815260040161414b90615555565b60405180910390fd5b600073ffffffffffffffffffffffffffffffffffffffff168273ffffffffffffffffffffffffffffffffffffffff16141561418e57600080fd5b6141e03460d360003373ffffffffffffffffffffffffffffffffffffffff1673ffffffffffffffffffffffffffffffffffffffff168152602001908152602001600020546144d690919063ffffffff16565b60d360003373ffffffffffffffffffffffffffffffffffffffff1673ffffffffffffffffffffffffffffffffffffffff168152602001908152602001600020819055506142753460d360008573ffffffffffffffffffffffffffffffffffffffff1673ffffffffffffffffffffffffffffffffffffffff168152602001908152602001600020546144c090919063ffffffff16565b60d360008473ffffffffffffffffffffffffffffffffffffffff1673ffffffffffffffffffffffffffffffffffffffff168152602001908152602001600020819055508173ffffffffffffffffffffffffffffffffffffffff166108fc349081150290604051600060405180830381858888f193505050501580156142fe573d6000803e3d6000fd5b507f36b32371bb3d27b70a300b938e6d31debbe7ec29dcc03280e3f72c01a97a58ef33833460405161433293929190615476565b60405180910390a160019050919050565b600061434d6144b8565b73ffffffffffffffffffffffffffffffffffffffff1661436b61360d565b73ffffffffffffffffffffffffffffffffffffffff16146143c1576040517f08c379a00000000000000000000000000000000000000000000000000000000081526004016143b890615615565b60405180910390fd5b6143c9613952565b6143d16118db565b506143da61109c565b506143e36120bc565b50600060cc81905550600060cd81905550600060ce81905550600060cf81905550600060d081905550600060d1819055506001905090565b60006144256144b8565b73ffffffffffffffffffffffffffffffffffffffff1661444361360d565b73ffffffffffffffffffffffffffffffffffffffff1614614499576040517f08c379a000000000000000000000000000000000000000000000000000000000815260040161449090615615565b60405180910390fd5b8160cb8190555060cb549050919050565b600081600001549050919050565b600033905090565b600081836144ce9190615860565b905092915050565b600081836144e49190615941565b905092915050565b600081836144fa91906158e7565b905092915050565b60008061452d60ca5461451f60648661453890919063ffffffff16565b6144ec90919063ffffffff16565b905080915050919050565b6000818361454691906158b6565b905092915050565b6001816000016000828254019250508190555050565b600082905060008290508082141561457d575050614813565b6000856002868661458e9190615941565b61459891906158b6565b866145a39190615860565b815181106145da577f4e487b7100000000000000000000000000000000000000000000000000000000600052603260045260246000fd5b602002602001015190505b8183116147e7575b806040015186848151811061462b577f4e487b7100000000000000000000000000000000000000000000000000000000600052603260045260246000fd5b602002602001015160400151111561465057828061464890615b2a565b9350506145ed565b5b85828151811061468a577f4e487b7100000000000000000000000000000000000000000000000000000000600052603260045260246000fd5b602002602001015160400151816040015111156146b45781806146ac90615a9d565b925050614651565b8183116147e2578582815181106146f4577f4e487b7100000000000000000000000000000000000000000000000000000000600052603260045260246000fd5b6020026020010151868481518110614735577f4e487b7100000000000000000000000000000000000000000000000000000000600052603260045260246000fd5b6020026020010151878581518110614776577f4e487b7100000000000000000000000000000000000000000000000000000000600052603260045260246000fd5b602002602001018885815181106147b6577f4e487b7100000000000000000000000000000000000000000000000000000000600052603260045260246000fd5b60200260200101829052829052505082806147d090615b2a565b93505081806147de90615a9d565b9250505b6145e5565b818510156147fb576147fa868684614564565b5b8383101561480f5761480e868486614564565b5b5050505b505050565b606060006148246136de565b905061483f8160006001845161483a9190615941565b614564565b8091505090565b6000609760009054906101000a900473ffffffffffffffffffffffffffffffffffffffff16905081609760006101000a81548173ffffffffffffffffffffffffffffffffffffffff021916908373ffffffffffffffffffffffffffffffffffffffff1602179055508173ffffffffffffffffffffffffffffffffffffffff168173ffffffffffffffffffffffffffffffffffffffff167f8be0079c531659141344cd1fd0a4f28419497f9722a3daafe3b4186f6b6457e060405160405180910390a35050565b60008060019054906101000a900460ff16156149835760018260ff1614801561493b575061493930614b07565b155b61497a576040517f08c379a0000000000000000000000000000000000000000000000000000000008152600401614971906155d5565b60405180910390fd5b600090506149f7565b8160ff1660008054906101000a900460ff1660ff16106149d8576040517f08c379a00000000000000000000000000000000000000000000000000000000081526004016149cf906155d5565b60405180910390fd5b816000806101000a81548160ff021916908360ff160217905550600190505b919050565b600060019054906101000a900460ff16614a4b576040517f08c379a0000000000000000000000000000000000000000000000000000000008152600401614a4290615655565b60405180910390fd5b614a53614b2a565b565b600060019054906101000a900460ff16614aa4576040517f08c379a0000000000000000000000000000000000000000000000000000000008152600401614a9b90615655565b60405180910390fd5b614aac614b82565b565b600060019054906101000a900460ff16614afd576040517f08c379a0000000000000000000000000000000000000000000000000000000008152600401614af490615655565b60405180910390fd5b614b05614bee565b565b6000808273ffffffffffffffffffffffffffffffffffffffff163b119050919050565b600060019054906101000a900460ff16614b79576040517f08c379a0000000000000000000000000000000000000000000000000000000008152600401614b7090615655565b60405180910390fd5b60018081905550565b600060019054906101000a900460ff16614bd1576040517f08c379a0000000000000000000000000000000000000000000000000000000008152600401614bc890615655565b60405180910390fd5b6000606560006101000a81548160ff021916908315150217905550565b600060019054906101000a900460ff16614c3d576040517f08c379a0000000000000000000000000000000000000000000000000000000008152600401614c3490615655565b60405180910390fd5b614c4d614c486144b8565b614846565b565b6040518060c00160405280600081526020016060815260200160008152602001600073ffffffffffffffffffffffffffffffffffffffff16815260200160006001811115614cc6577f4e487b7100000000000000000000000000000000000000000000000000000000600052602160045260246000fd5b8152602001606081525090565b828054614cdf90615ac7565b90600052602060002090601f016020900481019282614d015760008555614d48565b82601f10614d1a57805160ff1916838001178555614d48565b82800160010185558215614d48579182015b82811115614d47578251825591602001919060010190614d2c565b5b509050614d559190614de6565b5090565b828054614d6590615ac7565b90600052602060002090601f016020900481019282614d875760008555614dd5565b82601f10614d985780548555614dd5565b82800160010185558215614dd557600052602060002091601f016020900482015b82811115614dd4578254825591600101919060010190614db9565b5b509050614de29190614de6565b5090565b5b80821115614dff576000816000905550600101614de7565b5090565b6000614e16614e11846157be565b615799565b905082815260208101848484011115614e2e57600080fd5b614e39848285615a5b565b509392505050565b600081359050614e5081615f0a565b92915050565b600081359050614e6581615f21565b92915050565b600081359050614e7a81615f38565b92915050565b600082601f830112614e9157600080fd5b8135614ea1848260208601614e03565b91505092915050565b600081359050614eb981615f48565b92915050565b600060208284031215614ed157600080fd5b6000614edf84828501614e41565b91505092915050565b600060208284031215614efa57600080fd5b6000614f0884828501614e56565b91505092915050565b60008060408385031215614f2457600080fd5b6000614f3285828601614e41565b9250506020614f4385828601614eaa565b9150509250929050565b600060208284031215614f5f57600080fd5b6000614f6d84828501614e6b565b91505092915050565b60008060408385031215614f8957600080fd5b600083013567ffffffffffffffff811115614fa357600080fd5b614faf85828601614e80565b925050602083013567ffffffffffffffff811115614fcc57600080fd5b614fd885828601614e80565b9150509250929050565b600060208284031215614ff457600080fd5b600061500284828501614eaa565b91505092915050565b60006150178383615354565b905092915050565b615028816159ef565b82525050565b61503781615987565b82525050565b61504681615987565b82525050565b61505581615975565b82525050565b6000615066826157ff565b6150708185615822565b935083602082028501615082856157ef565b8060005b858110156150be578484038952815161509f858261500b565b94506150aa83615815565b925060208a01995050600181019050615086565b50829750879550505050505092915050565b6150d981615999565b82525050565b6150e881615a01565b82525050565b6150f781615a01565b82525050565b61510681615a13565b82525050565b61511581615a25565b82525050565b60006151268261580a565b615130818561583e565b9350615140818560208601615a6a565b61514981615c5e565b840191505092915050565b600061515f8261580a565b615169818561584f565b9350615179818560208601615a6a565b61518281615c5e565b840191505092915050565b600061519a60268361584f565b91506151a582615c6f565b604082019050919050565b60006151bd60128361584f565b91506151c882615cbe565b602082019050919050565b60006151e060128361584f565b91506151eb82615ce7565b602082019050919050565b600061520360108361584f565b915061520e82615d10565b602082019050919050565b600061522660258361584f565b915061523182615d39565b604082019050919050565b6000615249602e8361584f565b915061525482615d88565b604082019050919050565b600061526c601a8361584f565b915061527782615dd7565b602082019050919050565b600061528f60208361584f565b915061529a82615e00565b602082019050919050565b60006152b2600083615833565b91506152bd82615e29565b600082019050919050565b60006152d560168361584f565b91506152e082615e2c565b602082019050919050565b60006152f8602b8361584f565b915061530382615e55565b604082019050919050565b600061531b60198361584f565b915061532682615ea4565b602082019050919050565b600061533e601f8361584f565b915061534982615ecd565b602082019050919050565b600060c08301600083015161536c60008601826153e4565b5060208301518482036020860152615384828261511b565b915050604083015161539960408601826153e4565b5060608301516153ac606086018261502e565b5060808301516153bf60808601826150df565b5060a083015184820360a08601526153d7828261511b565b9150508091505092915050565b6153ed816159d8565b82525050565b6153fc816159d8565b82525050565b600061540d826152a5565b9150819050919050565b600060208201905061542c600083018461504c565b92915050565b6000602082019050615447600083018461501f565b92915050565b6000604082019050615462600083018561501f565b61546f60208301846153f3565b9392505050565b600060608201905061548b600083018661504c565b615498602083018561501f565b6154a560408301846153f3565b949350505050565b600060208201905081810360008301526154c7818461505b565b905092915050565b600060408201905081810360008301526154e9818561505b565b90506154f860208301846153f3565b9392505050565b600060208201905061551460008301846150d0565b92915050565b600060208201905061552f600083018461510c565b92915050565b6000602082019050818103600083015261554e8161518d565b9050919050565b6000602082019050818103600083015261556e816151b0565b9050919050565b6000602082019050818103600083015261558e816151d3565b9050919050565b600060208201905081810360008301526155ae816151f6565b9050919050565b600060208201905081810360008301526155ce81615219565b9050919050565b600060208201905081810360008301526155ee8161523c565b9050919050565b6000602082019050818103600083015261560e8161525f565b9050919050565b6000602082019050818103600083015261562e81615282565b9050919050565b6000602082019050818103600083015261564e816152c8565b9050919050565b6000602082019050818103600083015261566e816152eb565b9050919050565b6000602082019050818103600083015261568e8161530e565b9050919050565b600060208201905081810360008301526156ae81615331565b9050919050565b60006020820190506156ca60008301846153f3565b92915050565b600060a0820190506156e560008301886153f3565b81810360208301526156f78187615154565b905061570660408301866150fd565b615713606083018561501f565b61572060808301846150ee565b9695505050505050565b600060c08201905061573f60008301896153f3565b81810360208301526157518188615154565b905061576060408301876153f3565b61576d606083018661503d565b61577a60808301856150ee565b81810360a083015261578c8184615154565b9050979650505050505050565b60006157a36157b4565b90506157af8282615af9565b919050565b6000604051905090565b600067ffffffffffffffff8211156157d9576157d8615c2f565b5b6157e282615c5e565b9050602081019050919050565b6000819050602082019050919050565b600081519050919050565b600081519050919050565b6000602082019050919050565b600082825260208201905092915050565b600081905092915050565b600082825260208201905092915050565b600082825260208201905092915050565b600061586b826159d8565b9150615876836159d8565b9250827fffffffffffffffffffffffffffffffffffffffffffffffffffffffffffffffff038211156158ab576158aa615b73565b5b828201905092915050565b60006158c1826159d8565b91506158cc836159d8565b9250826158dc576158db615ba2565b5b828204905092915050565b60006158f2826159d8565b91506158fd836159d8565b9250817fffffffffffffffffffffffffffffffffffffffffffffffffffffffffffffffff048311821515161561593657615935615b73565b5b828202905092915050565b600061594c826159d8565b9150615957836159d8565b92508282101561596a57615969615b73565b5b828203905092915050565b6000615980826159b8565b9050919050565b6000615992826159b8565b9050919050565b60008115159050919050565b60008190506159b382615ef6565b919050565b600073ffffffffffffffffffffffffffffffffffffffff82169050919050565b6000819050919050565b600060ff82169050919050565b60006159fa82615a37565b9050919050565b6000615a0c826159a5565b9050919050565b6000615a1e826159d8565b9050919050565b6000615a30826159e2565b9050919050565b6000615a4282615a49565b9050919050565b6000615a54826159b8565b9050919050565b82818337600083830152505050565b60005b83811015615a88578082015181840152602081019050615a6d565b83811115615a97576000848401525b50505050565b6000615aa8826159d8565b91506000821415615abc57615abb615b73565b5b600182039050919050565b60006002820490506001821680615adf57607f821691505b60208210811415615af357615af2615c00565b5b50919050565b615b0282615c5e565b810181811067ffffffffffffffff82111715615b2157615b20615c2f565b5b80604052505050565b6000615b35826159d8565b91507fffffffffffffffffffffffffffffffffffffffffffffffffffffffffffffffff821415615b6857615b67615b73565b5b600182019050919050565b7f4e487b7100000000000000000000000000000000000000000000000000000000600052601160045260246000fd5b7f4e487b7100000000000000000000000000000000000000000000000000000000600052601260045260246000fd5b7f4e487b7100000000000000000000000000000000000000000000000000000000600052602160045260246000fd5b7f4e487b7100000000000000000000000000000000000000000000000000000000600052602260045260246000fd5b7f4e487b7100000000000000000000000000000000000000000000000000000000600052604160045260246000fd5b6000601f19601f8301169050919050565b7f4f776e61626c653a206e6577206f776e657220697320746865207a65726f206160008201527f6464726573730000000000000000000000000000000000000000000000000000602082015250565b7f6e6f7420656e6f7567682062616c616e63650000000000000000000000000000600082015250565b7f496e73756666696369656e742066756e64730000000000000000000000000000600082015250565b7f5061757361626c653a2070617573656400000000000000000000000000000000600082015250565b7f596f75206861766520616c726561647920766f74656420666f7220746869732060008201527f766964656f000000000000000000000000000000000000000000000000000000602082015250565b7f496e697469616c697a61626c653a20636f6e747261637420697320616c72656160008201527f647920696e697469616c697a6564000000000000000000000000000000000000602082015250565b7f43616e6e6f7420686176652061207a65726f206465706f736974000000000000600082015250565b7f4f776e61626c653a2063616c6c6572206973206e6f7420746865206f776e6572600082015250565b50565b7f6e65656420746f206d616b652061206465706f73697400000000000000000000600082015250565b7f496e697469616c697a61626c653a20636f6e7472616374206973206e6f74206960008201527f6e697469616c697a696e67000000000000000000000000000000000000000000602082015250565b7f63616e206f6e6c7920636c6f7365206f70656e20706f73747300000000000000600082015250565b7f5265656e7472616e637947756172643a207265656e7472616e742063616c6c00600082015250565b60028110615f0757615f06615bd1565b5b50565b615f1381615975565b8114615f1e57600080fd5b50565b615f2a81615987565b8114615f3557600080fd5b50565b60028110615f4557600080fd5b50565b615f51816159d8565b8114615f5c57600080fd5b5056fea2646970667358221220ba3e4e35a3df286e00b73bcfc3f8e3807c5db3e891f5136c39a27645deb51e6164736f6c63430008020033",
  "immutableReferences": {},
  "source": "// SPDX-License-Identifier: MIT\npragma solidity ^0.8.2;\npragma abicoder v2;\n\nimport \"./Storage.sol\";\n\ncontract BestX is Storage {\n\n    using SafeMathUpgradeable for uint;\n    using CountersUpgradeable for CountersUpgradeable.Counter;\n\n    function initialize() public initializer {\n        __ReentrancyGuard_init();\n        __Pausable_init();\n        __Ownable_init();\n        platformPercentageFee = 10; \n        postingPrice = 100 wei; \n    }\n\n    /**\n     * @dev Checks the balance of the caller address\n     */\n\n    function getMyBalance () public view returns (uint) {\n        return balances[msg.sender];\n    }\n\n    function getMyAddress() public view returns (address) {\n        return msg.sender;\n    }\n\n\n\n    /**\n     * @dev Checks the balance of the input address \n     * @notice Most likely not needed, unless we think of a specific use case for it\n     */\n    \n    function artistBalance(address _artist) public view returns (uint) {\n        return balances[_artist];\n    }\n\n\n\n    /** \n     * @dev Gets contract balance\n     * \n     */\n\n    function contractBalance () public view onlyOwner returns (uint) {\n        return address(this).balance;\n    }\n\n\n\n    /**\n     * @dev Updates platform's service fee\n     */\n\n    function updateFee(uint _newFee) public onlyOwner returns (uint) {\n        platformPercentageFee = _newFee;\n        return platformPercentageFee;\n    }\n\n\n\n    /**\n     * @dev Calculates fee amount based on the platformPercentageFee (which is a percentage) and an amount  \n     */\n\n    function _calculateFeeAmount(uint _amount) internal view returns (uint) {\n        uint _feeAmount = (_amount.div(100)).mul(platformPercentageFee);\n        return _feeAmount;\n    }\n\n\n    /**\n     * @dev Allows an address to deposit ETH into the wallet\n     * @notice We're just using ETH for testing pursposes. This might change in the future. \n     */\n\n    function deposit() public payable whenNotPaused returns (bool _success) {\n        require(msg.value != 0, \"Cannot have a zero deposit\");\n        balances[payable(msg.sender)] = balances[payable(msg.sender)].add(msg.value);\n        emit depositSuccessful(payable(msg.sender), msg.value);\n        _success = true;\n    }\n\n\n\n    /**\n     * @dev Allows an address to deposit ETH into the wallet\n     * @notice We're just using ETH for testing pursposes. This might change in the future. \n     */\n\n    function donateTo(address payable _to) public payable whenNotPaused returns (bool _success) {\n        require( balances[payable(msg.sender)] >= msg.value, \"not enough balance\");\n        require(_to != address(0));\n        balances[payable(msg.sender)] = balances[payable(msg.sender)].sub(msg.value); \n        balances[payable(_to)] = balances[payable(_to)].add(msg.value); \n        payable(_to).transfer(msg.value); \n        emit donationSuccessful(msg.sender, _to, msg.value);\n        _success = true;\n    }\n\n\n\n    /**\n     * @dev Allows an address to withdraw their funds\n     * @notice Function should be safe, but thourough testing still needed\n     * @dev This function allows the user to withdraw all funds \n     */\n\n    function withdrawAll () public nonReentrant whenNotPaused returns (bool _success) {\n        require (balances[payable(msg.sender)] > 0, \"Insufficient funds\");\n        uint _amountToWithdraw = balances[payable(msg.sender)];\n        balances[payable(msg.sender)] = 0;\n        (bool success, ) = payable(msg.sender).call{value:_amountToWithdraw}(\"\");\n        if (!success) revert();\n        assert(balances[payable(msg.sender)] == 0);\n        emit withdrawSuccessful(payable(msg.sender), _amountToWithdraw);\n        _success = true;\n    }\n\n\n\n    /**\n     * @dev Allows owner to withdraw funds from contract\n     */\n\n    function ownerWithdraw(uint _amount) public onlyOwner returns (bool _success) {\n        require (_amount <= address(this).balance);\n        (bool success, ) = payable(msg.sender).call{value:_amount}(\"\");\n        if (!success) revert();\n        _success = true;\n    }\n\n\n\n    /** \n     * @dev Creates a Post \n     * @dev QUESTION: let's think about transfer of ownership here\n     * as things stand the sender is the owner and that's what we want? Do we need it?\n     * @dev QUESTION: Royalties for the future? \n     */\n\n    function createPost (string memory _tokenUrl, string memory _description) public payable nonReentrant returns (bool _success) {\n\n        uint itemId = _itemIds.current();\n\n        Post memory post = Post({\n            itemId: itemId,\n            tokenUrl: _tokenUrl,\n            votes: 0,\n            artist: payable(msg.sender),\n            status: Status.OPEN,\n            description: _description\n        });\n\n        require (balances[payable(msg.sender)] >= postingPrice, \"need to make a deposit\");\n        balances[msg.sender] = balances[msg.sender].sub(postingPrice);\n\n        posts.push(post);\n\n        itemIdToPost[itemId] = post;\n\n        _itemIds.increment();\n\n        emit PostCreated(itemId, _tokenUrl, 0, payable(msg.sender), Status.OPEN);\n\n        _success = true;\n\n    }\n\n\n\n    /** \n     * @dev Updates the posting price\n     * \n     */\n\n    function updatePostingPrice (uint _newPrice) public onlyOwner returns (uint) {\n        postingPrice = _newPrice;\n        return postingPrice;\n    }\n\n\n\n    /** \n     * @dev Fetches all posts \n     * \n     */\n\n    function fetchPosts () public view returns (Post[] memory) {\n        return posts;\n    }\n\n\n\n    /** \n     * @dev Gets posting price \n     * \n     */\n\n    function getPostingPrice () public view returns (uint) {\n        return postingPrice;\n    }\n\n\n\n    /** \n     * @dev Upvote for a post using its itemId\n     * \n     */\n\n    function upVote (uint itemId) public {\n        // make sure the same address cannot vote more than once for the same video\n        require (hasVoted[msg.sender][itemId] == false, \"You have already voted for this video\");\n        itemIdToPost[itemId].votes = itemIdToPost[itemId].votes.add(1);\n        posts[itemId] = itemIdToPost[itemId];\n        hasVoted[msg.sender][itemId] = true;\n    }\n\n\n\n    /** \n     * @dev Closes a post based on its itemId\n     * \n     */\n\n    function closeSinglePost (uint itemId) public  onlyOwner {\n        require (itemIdToPost[itemId].status == Status.OPEN, \"can only close open posts\");\n        itemIdToPost[itemId].status = Status.CLOSED;\n        posts[itemId] = itemIdToPost[itemId];\n    }\n\n\n\n    /** \n     * @dev Fetches posts based on their status\n     * \n     */\n\n    function fetchPostsByStatus (Status _status) public view returns (Post[] memory) {\n\n        uint totalItemCount = _itemIds.current();\n        uint itemCount = 0;\n        uint currentIndex = 0;\n\n        for (uint i = 0; i < totalItemCount; i++) {\n            if (itemIdToPost[i].status == _status) {\n                itemCount += 1;\n            }\n        }\n\n        Post[] memory items = new Post[](itemCount);\n        for (uint i = 0; i < totalItemCount; i++) {\n            if (itemIdToPost[i].status == _status) {\n                uint currentId = i;\n                Post storage currentItem = itemIdToPost[currentId];\n                items[currentIndex] = currentItem;\n                currentIndex += 1;\n            }\n        }\n    \n        return items;\n\n    }\n\n\n\n    /** \n     * @dev Fetches posts for a specific user\n     *  \n     */\n\n    function postsByUser (address _artist) public view returns (Post[] memory) {\n\n        uint totalItemCount = _itemIds.current();\n        uint itemCount = 0;\n        uint currentIndex = 0;\n\n        for (uint i = 0; i < totalItemCount; i++) {\n            if (itemIdToPost[i].artist == _artist) {\n                itemCount += 1;\n            }\n        }\n\n        Post[] memory items = new Post[](itemCount);\n        for (uint i = 0; i < totalItemCount; i++) {\n            if (itemIdToPost[i].artist == _artist) {\n                uint currentId = i;\n                Post storage currentItem = itemIdToPost[currentId];\n                items[currentIndex] = currentItem;\n                currentIndex += 1;\n            }\n        }\n    \n        return items;\n\n    }\n\n\n\n    /** \n     * @dev Internal function uses quicksort algo on array of posts \n     * \n     */\n\n    function _quickSort(Post[] memory arr, uint left, uint right) internal {\n        uint i = left;\n        uint j = right;\n        if(i==j) return;\n        Post memory pivot = arr[uint(left + (right - left) / 2)];\n        while (i <= j) {\n            while (arr[uint(i)].votes > pivot.votes) i++;\n            while (pivot.votes > arr[uint(j)].votes) j--;\n            if (i <= j) {\n                (arr[uint(i)], arr[uint(j)]) = (arr[uint(j)], arr[uint(i)]);\n                i++;\n                j--;\n            }\n        }\n        if (left < j) _quickSort(arr, left, j);\n        if (i < right) _quickSort(arr, i, right);\n\n    }\n\n\n    \n    /** \n     * @dev Sorts the posts based on votes \n     *\n     */\n\n    function _sortPosts () internal returns (Post[] memory) {\n\n        Post[] memory _posts = fetchPosts();\n\n        _quickSort(_posts, 0, _posts.length - 1);\n\n        return _posts; \n\n    }\n\n\n\n    /** \n     * @dev Gets top10 posts all time \n     * \n     */\n\n    function top10Posts () public returns (Post[] memory) {\n        Post[] memory sortedArr = _sortPosts(); \n        uint k = 10;\n\n        if (sortedArr.length < 10) {\n            k = sortedArr.length;\n        } \n\n        Post[] memory result = new Post[](k);\n        \n        for (uint i = 0; i < k; i ++) {\n            result[i] = sortedArr[i];\n        }\n\n        return result;\n    }\n\n    \n\n    /** \n     * @dev Gets active posts in the top 50% bracket\n     * \n     */\n\n    function topHalfActivePosts () public returns (Post[] memory) {\n        Post[] memory activePosts = fetchPostsByStatus(Status.OPEN);\n\n        _quickSort(activePosts, 0, activePosts.length -1);\n\n        Post[] memory result = new Post[](uint(activePosts.length /2));\n\n        for (uint i = 0; i < result.length; i++) {\n            result[i] = activePosts[i];\n        }\n\n        return result;\n    }\n\n\n\n    /** \n     * @dev Gets active the top 5 active posts\n     * \n     */\n\n    function top5ActivePosts () public returns (Post[] memory) {\n        Post[] memory activePosts = fetchPostsByStatus(Status.OPEN);\n        \n        _quickSort(activePosts, 0, activePosts.length -1);\n\n        uint k = 5;\n\n        if (activePosts.length < k) {\n            k = activePosts.length;\n        } \n\n        Post[] memory result = new Post[](k);\n\n        for (uint i = 0; i < result.length; i++) {\n            result[i] = activePosts[i];\n           \n        }\n\n        return result;\n\n    }\n\n\n\n    /** \n     * @dev Pay out prize to top 50% of active posts \n     * @notice this is NEW version, where the payout updates the artist's balance\n     *\n     * Below function will return the posting amount to top 5 players as well\n     * Suggestion: It sould skip top 5 players and just pay 6th post to rest of the top 50%\n     *\n     * PUBLIC VISIBILITY NOW FOR TESTING - SHOULD BE INTENRAL\n     */\n    \n    function _topHalfPayout () public onlyOwner {\n        Post[] memory topHalf = topHalfActivePosts();\n       \n        for (uint i = 0; i < topHalf.length; i ++) {\n            balances[topHalf[i].artist] = balances[topHalf[i].artist].add(postingPrice);\n        }\n\n        emit PayoutTopHalf(topHalf, postingPrice);\n        \n    }\n    \n\n\n    /** \n     * @dev Calculates the top5 Payouts \n     * \n     * PUBLIC VISIBILITY NOW FOR TESTING - SHOULD BE INTENRAL\n     */\n\n    function _calculateTop5Payout() public onlyOwner returns (bool _success) {\n        Post[] memory activePosts = fetchPostsByStatus(Status.OPEN);\n        Post[] memory topHalf = topHalfActivePosts();\n\n        uint _difference = uint(activePosts.length).sub(uint(topHalf.length));\n        uint _pool = _difference.mul(postingPrice);\n        uint _fee = _calculateFeeAmount(_pool);\n        jackpot = _pool.sub(_fee);\n\n\n        firstPrize = jackpot.mul(50).div(100);\n        secondPrize = jackpot.mul(30).div(100);\n        thirdPrize = jackpot.mul(10).div(100);\n        fourthPrize = jackpot.mul(6).div(100);\n        fifthPrize = jackpot.mul(4).div(100);\n        \n        assert(firstPrize.add(secondPrize).add(thirdPrize).add(fourthPrize).add(fifthPrize) <= jackpot);\n\n        _success = true;\n    }\n\n\n\n    /** \n     * @dev Pay out prize to top 5 active posts \n     * \n     * PUBLIC VISIBILITY NOW FOR TESTING - SHOULD BE INTENRAL\n     */\n\n    function _top5Payout() public onlyOwner returns (bool _success) {\n        Post[] memory top5 = top5ActivePosts(); \n        \n        // if the top 5 list has less than 5 players, the first place gets the whole jackpot\n        // What should happen when there are multiple videos of single artist in top 5?\n        if (top5.length < 5 ) {\n\n            balances[top5[0].artist] = balances[top5[0].artist].add(jackpot);\n\n            emit PayoutTop1(top5[0].artist);\n\n        } else {\n            balances[top5[0].artist] = balances[top5[0].artist].add(firstPrize);\n            balances[top5[1].artist] = balances[top5[1].artist].add(secondPrize);\n            balances[top5[2].artist] = balances[top5[2].artist].add(thirdPrize);\n            balances[top5[3].artist] = balances[top5[3].artist].add(fourthPrize);\n            balances[top5[4].artist] = balances[top5[4].artist].add(fifthPrize); \n        }\n\n        emit PayoutTop5(top5);\n\n        _success = true;\n\n    }\n\n\n\n    /** \n     * @dev Closes all ACTIVE posts \n     * @notice MUST be called after the Payout functions \n     *\n     *\n     * PUBLIC VISIBILITY NOW FOR TESTING - SHOULD BE INTENRAL\n     */\n\n    function _closeAllPosts () public onlyOwner returns (bool _success) {\n        Post[] memory _posts = fetchPostsByStatus(Status.OPEN);\n\n        for (uint i = 0; i < _posts.length; i ++ ) {\n        //    itemIdToPost[i].status = Status.CLOSED;\n            closeSinglePost(_posts[i].itemId);\n        }\n        _success = true;\n    }\n\n\n\n    /**\n     * @dev REFRESHES THE GAME \n     * @dev CAN ONLY BE CALLED BY OWNER\n     * @dev CALCULATES WINNERS - UPDATES BALANCES AND CLOSES ALL POSTS\n     */\n    \n    function refresh() public onlyOwner returns (bool _success) {\n\n        _topHalfPayout();\n        _calculateTop5Payout();\n        _top5Payout();\n        _closeAllPosts();\n\n        jackpot = 0;\n        firstPrize = 0;\n        secondPrize = 0;\n        thirdPrize = 0;\n        fourthPrize = 0;\n        fifthPrize = 0;\n\n        _success = true;\n\n    }\n\n\n\n    // /** \n    //  * @dev Removes the post with the specified id\n    //  * \n    //  */\n\n    // function deletePost(uint _itemId) public {\n    //     Post memory removeMe;\n    //     removeMe = posts[_itemId];\n    //     posts[_itemId] = posts[posts.length -1 ];\n    //     posts[posts.length -1 ] = removeMe;\n    //     delete removeMe;\n    //     itemIdToPost[_itemId] = posts[_itemId];\n    //     itemIdToPost[_itemId].itemId = _itemId;\n    //     posts[_itemId].itemId = _itemId;\n    //     posts.pop();\n    // }\n\n}",
  "sourcePath": "/Users/yashagupta/Work/CodeGenix/bestx/contracts/BestX.sol",
  "compiler": {
    "name": "solc",
    "version": "0.8.2+commit.661d1103.Emscripten.clang"
  },
  "schemaVersion": "3.4.10",
  "updatedAt": "2022-09-27T13:49:40.763Z",
  "devdoc": {
    "kind": "dev",
    "methods": {
      "_calculateTop5Payout()": {
        "details": "Calculates the top5 Payouts   PUBLIC VISIBILITY NOW FOR TESTING - SHOULD BE INTENRAL"
      },
      "_closeAllPosts()": {
        "details": "Closes all ACTIVE posts "
      },
      "_top5Payout()": {
        "details": "Pay out prize to top 5 active posts   PUBLIC VISIBILITY NOW FOR TESTING - SHOULD BE INTENRAL"
      },
      "_topHalfPayout()": {
        "details": "Pay out prize to top 50% of active posts "
      },
      "artistBalance(address)": {
        "details": "Checks the balance of the input address "
      },
      "closeSinglePost(uint256)": {
        "details": "Closes a post based on its itemId "
      },
      "contractBalance()": {
        "details": "Gets contract balance "
      },
      "createPost(string,string)": {
        "details": "Creates a Post QUESTION: let's think about transfer of ownership here as things stand the sender is the owner and that's what we want? Do we need it?QUESTION: Royalties for the future? "
      },
      "deposit()": {
        "details": "Allows an address to deposit ETH into the wallet"
      },
      "donateTo(address)": {
        "details": "Allows an address to deposit ETH into the wallet"
      },
      "fetchPosts()": {
        "details": "Fetches all posts  "
      },
      "fetchPostsByStatus(uint8)": {
        "details": "Fetches posts based on their status "
      },
      "getMyBalance()": {
        "details": "Checks the balance of the caller address"
      },
      "getPostingPrice()": {
        "details": "Gets posting price  "
      },
      "owner()": {
        "details": "Returns the address of the current owner."
      },
      "ownerWithdraw(uint256)": {
        "details": "Allows owner to withdraw funds from contract"
      },
      "paused()": {
        "details": "Returns true if the contract is paused, and false otherwise."
      },
      "postsByUser(address)": {
        "details": "Fetches posts for a specific user  "
      },
      "refresh()": {
        "details": "REFRESHES THE GAME CAN ONLY BE CALLED BY OWNERCALCULATES WINNERS - UPDATES BALANCES AND CLOSES ALL POSTS"
      },
      "renounceOwnership()": {
        "details": "Leaves the contract without owner. It will not be possible to call `onlyOwner` functions anymore. Can only be called by the current owner. NOTE: Renouncing ownership will leave the contract without an owner, thereby removing any functionality that is only available to the owner."
      },
      "top10Posts()": {
        "details": "Gets top10 posts all time  "
      },
      "top5ActivePosts()": {
        "details": "Gets active the top 5 active posts "
      },
      "topHalfActivePosts()": {
        "details": "Gets active posts in the top 50% bracket "
      },
      "transferOwnership(address)": {
        "details": "Transfers ownership of the contract to a new account (`newOwner`). Can only be called by the current owner."
      },
      "upVote(uint256)": {
        "details": "Upvote for a post using its itemId "
      },
      "updateFee(uint256)": {
        "details": "Updates platform's service fee"
      },
      "updatePostingPrice(uint256)": {
        "details": "Updates the posting price "
      },
      "withdrawAll()": {
        "details": "Allows an address to withdraw their fundsThis function allows the user to withdraw all funds "
      }
    },
    "version": 1
  },
  "userdoc": {
    "kind": "user",
    "methods": {
      "_closeAllPosts()": {
        "notice": "MUST be called after the Payout functions  PUBLIC VISIBILITY NOW FOR TESTING - SHOULD BE INTENRAL"
      },
      "_topHalfPayout()": {
        "notice": "this is NEW version, where the payout updates the artist's balance Below function will return the posting amount to top 5 players as well Suggestion: It sould skip top 5 players and just pay 6th post to rest of the top 50% PUBLIC VISIBILITY NOW FOR TESTING - SHOULD BE INTENRAL"
      },
      "artistBalance(address)": {
        "notice": "Most likely not needed, unless we think of a specific use case for it"
      },
      "deposit()": {
        "notice": "We're just using ETH for testing pursposes. This might change in the future. "
      },
      "donateTo(address)": {
        "notice": "We're just using ETH for testing pursposes. This might change in the future. "
      },
      "withdrawAll()": {
        "notice": "Function should be safe, but thourough testing still needed"
      }
    },
    "version": 1
  }
}